{
  "_format": "hh-sol-artifact-1",
  "contractName": "Airdrop",
  "sourceName": "contracts/Airdrop.sol",
  "abi": [
    {
      "inputs": [
        {
          "internalType": "address",
          "name": "_airdropToken",
          "type": "address"
        }
      ],
      "stateMutability": "nonpayable",
      "type": "constructor"
    },
    {
      "anonymous": false,
      "inputs": [
        {
          "indexed": false,
          "internalType": "address",
          "name": "user",
          "type": "address"
        }
      ],
      "name": "AirdropClaimed",
      "type": "event"
    },
    {
      "inputs": [],
      "name": "TOKENS_PER_CLAIM",
      "outputs": [
        {
          "internalType": "uint256",
          "name": "",
          "type": "uint256"
        }
      ],
      "stateMutability": "view",
      "type": "function"
    },
    {
      "inputs": [],
      "name": "airdropToken",
      "outputs": [
        {
          "internalType": "contract IERC20",
          "name": "",
          "type": "address"
        }
      ],
      "stateMutability": "view",
      "type": "function"
    },
    {
      "inputs": [],
      "name": "claimToken",
      "outputs": [],
      "stateMutability": "nonpayable",
      "type": "function"
    },
    {
      "inputs": [
        {
          "internalType": "address",
          "name": "",
          "type": "address"
        }
      ],
      "name": "isClaimed",
      "outputs": [
        {
          "internalType": "bool",
          "name": "",
          "type": "bool"
        }
      ],
      "stateMutability": "view",
      "type": "function"
    },
    {
      "inputs": [],
      "name": "totalTokenClaimed",
      "outputs": [
        {
          "internalType": "uint256",
          "name": "",
          "type": "uint256"
        }
      ],
      "stateMutability": "view",
      "type": "function"
    }
  ],
  "bytecode": "0x608060405234801561001057600080fd5b5060405161086738038061086783398181016040528101906100329190610114565b600073ffffffffffffffffffffffffffffffffffffffff168173ffffffffffffffffffffffffffffffffffffffff160361006b57600080fd5b806000806101000a81548173ffffffffffffffffffffffffffffffffffffffff021916908373ffffffffffffffffffffffffffffffffffffffff16021790555050610141565b600080fd5b600073ffffffffffffffffffffffffffffffffffffffff82169050919050565b60006100e1826100b6565b9050919050565b6100f1816100d6565b81146100fc57600080fd5b50565b60008151905061010e816100e8565b92915050565b60006020828403121561012a576101296100b1565b5b6000610138848285016100ff565b91505092915050565b610717806101506000396000f3fe608060405234801561001057600080fd5b50600436106100575760003560e01c806334262ca41461005c5780634451d89f1461007a5780634d06068a146100845780638cc08025146100a2578063ccfff679146100d2575b600080fd5b6100646100f0565b604051610071919061038e565b60405180910390f35b6100826100f6565b005b61008c610324565b6040516100999190610428565b60405180910390f35b6100bc60048036038101906100b79190610486565b610348565b6040516100c991906104ce565b60405180910390f35b6100da610368565b6040516100e7919061038e565b60405180910390f35b60015481565b6000339050600260008273ffffffffffffffffffffffffffffffffffffffff1673ffffffffffffffffffffffffffffffffffffffff16815260200190815260200160002060009054906101000a900460ff1615610188576040517f08c379a000000000000000000000000000000000000000000000000000000000815260040161017f90610546565b60405180910390fd5b6001600260003373ffffffffffffffffffffffffffffffffffffffff1673ffffffffffffffffffffffffffffffffffffffff16815260200190815260200160002060006101000a81548160ff02191690831515021790555060008060009054906101000a900473ffffffffffffffffffffffffffffffffffffffff1673ffffffffffffffffffffffffffffffffffffffff1663a9059cbb836802b5e3af16b18800006040518363ffffffff1660e01b8152600401610247929190610575565b6020604051808303816000875af1158015610266573d6000803e3d6000fd5b505050506040513d601f19601f8201168201806040525081019061028a91906105ca565b9050806102cc576040517f08c379a00000000000000000000000000000000000000000000000000000000081526004016102c390610643565b60405180910390fd5b6802b5e3af16b18800006001546102e39190610692565b6001819055507fc9f0f8d7dc4420a7a9f4c3465fd7e04ccdcdba009c147e7663ddd6c6090c732f8260405161031891906106c6565b60405180910390a15050565b60008054906101000a900473ffffffffffffffffffffffffffffffffffffffff1681565b60026020528060005260406000206000915054906101000a900460ff1681565b6802b5e3af16b188000081565b6000819050919050565b61038881610375565b82525050565b60006020820190506103a3600083018461037f565b92915050565b600073ffffffffffffffffffffffffffffffffffffffff82169050919050565b6000819050919050565b60006103ee6103e96103e4846103a9565b6103c9565b6103a9565b9050919050565b6000610400826103d3565b9050919050565b6000610412826103f5565b9050919050565b61042281610407565b82525050565b600060208201905061043d6000830184610419565b92915050565b600080fd5b6000610453826103a9565b9050919050565b61046381610448565b811461046e57600080fd5b50565b6000813590506104808161045a565b92915050565b60006020828403121561049c5761049b610443565b5b60006104aa84828501610471565b91505092915050565b60008115159050919050565b6104c8816104b3565b82525050565b60006020820190506104e360008301846104bf565b92915050565b600082825260208201905092915050565b7f416c726561647920636c61696d65642100000000000000000000000000000000600082015250565b60006105306010836104e9565b915061053b826104fa565b602082019050919050565b6000602082019050818103600083015261055f81610523565b9050919050565b61056f81610448565b82525050565b600060408201905061058a6000830185610566565b610597602083018461037f565b9392505050565b6105a7816104b3565b81146105b257600080fd5b50565b6000815190506105c48161059e565b92915050565b6000602082840312156105e0576105df610443565b5b60006105ee848285016105b5565b91505092915050565b7f546f6b656e207472616e736665722066616c73652e0000000000000000000000600082015250565b600061062d6015836104e9565b9150610638826105f7565b602082019050919050565b6000602082019050818103600083015261065c81610620565b9050919050565b7f4e487b7100000000000000000000000000000000000000000000000000000000600052601160045260246000fd5b600061069d82610375565b91506106a883610375565b92508282019050808211156106c0576106bf610663565b5b92915050565b60006020820190506106db6000830184610566565b9291505056fea2646970667358221220cb14055c7e23ff30a672977d19326d0e2ccc8e1fd6a83491d0d117e6a521f97264736f6c634300081b0033",
  "linkReferences": {},
  "deployedLinkReferences": {}
}