{
  "_format": "hh-sol-artifact-1",
  "contractName": "Airdrop",
  "sourceName": "contracts/Airdrop.sol",
  "abi": [
    {
      "inputs": [
        {
          "internalType": "address",
          "name": "_airdropToken",
          "type": "address"
        }
      ],
      "stateMutability": "nonpayable",
      "type": "constructor"
    },
    {
      "anonymous": false,
      "inputs": [
        {
          "indexed": false,
          "internalType": "address",
          "name": "user",
          "type": "address"
        }
      ],
      "name": "AirdropClaimed",
      "type": "event"
    },
    {
      "inputs": [],
      "name": "TOKENS_PER_CLAIM",
      "outputs": [
        {
          "internalType": "uint256",
          "name": "",
          "type": "uint256"
        }
      ],
      "stateMutability": "view",
      "type": "function"
    },
    {
      "inputs": [],
      "name": "airdropToken",
      "outputs": [
        {
          "internalType": "contract IERC20",
          "name": "",
          "type": "address"
        }
      ],
      "stateMutability": "view",
      "type": "function"
    },
    {
      "inputs": [
        {
          "internalType": "address",
          "name": "user",
          "type": "address"
        }
      ],
      "name": "checkIsClaim",
      "outputs": [
        {
          "internalType": "bool",
          "name": "",
          "type": "bool"
        }
      ],
      "stateMutability": "view",
      "type": "function"
    },
    {
      "inputs": [],
      "name": "claimToken",
      "outputs": [],
      "stateMutability": "nonpayable",
      "type": "function"
    },
    {
      "inputs": [],
      "name": "totalTokenClaimed",
      "outputs": [
        {
          "internalType": "uint256",
          "name": "",
          "type": "uint256"
        }
      ],
      "stateMutability": "view",
      "type": "function"
    }
  ],
  "bytecode": "0x608060405234801561001057600080fd5b5060405161089d38038061089d83398181016040528101906100329190610114565b600073ffffffffffffffffffffffffffffffffffffffff168173ffffffffffffffffffffffffffffffffffffffff160361006b57600080fd5b806000806101000a81548173ffffffffffffffffffffffffffffffffffffffff021916908373ffffffffffffffffffffffffffffffffffffffff16021790555050610141565b600080fd5b600073ffffffffffffffffffffffffffffffffffffffff82169050919050565b60006100e1826100b6565b9050919050565b6100f1816100d6565b81146100fc57600080fd5b50565b60008151905061010e816100e8565b92915050565b60006020828403121561012a576101296100b1565b5b6000610138848285016100ff565b91505092915050565b61074d806101506000396000f3fe608060405234801561001057600080fd5b50600436106100575760003560e01c806334262ca41461005c5780634451d89f1461007a5780634d06068a14610084578063ccfff679146100a2578063e8916fc3146100c0575b600080fd5b6100646100f0565b60405161007191906103c4565b60405180910390f35b6100826100f6565b005b61008c610324565b604051610099919061045e565b60405180910390f35b6100aa610348565b6040516100b791906103c4565b60405180910390f35b6100da60048036038101906100d591906104bc565b610355565b6040516100e79190610504565b60405180910390f35b60015481565b6000339050600260008273ffffffffffffffffffffffffffffffffffffffff1673ffffffffffffffffffffffffffffffffffffffff16815260200190815260200160002060009054906101000a900460ff1615610188576040517f08c379a000000000000000000000000000000000000000000000000000000000815260040161017f9061057c565b60405180910390fd5b6001600260003373ffffffffffffffffffffffffffffffffffffffff1673ffffffffffffffffffffffffffffffffffffffff16815260200190815260200160002060006101000a81548160ff02191690831515021790555060008060009054906101000a900473ffffffffffffffffffffffffffffffffffffffff1673ffffffffffffffffffffffffffffffffffffffff1663a9059cbb836802b5e3af16b18800006040518363ffffffff1660e01b81526004016102479291906105ab565b6020604051808303816000875af1158015610266573d6000803e3d6000fd5b505050506040513d601f19601f8201168201806040525081019061028a9190610600565b9050806102cc576040517f08c379a00000000000000000000000000000000000000000000000000000000081526004016102c390610679565b60405180910390fd5b6802b5e3af16b18800006001546102e391906106c8565b6001819055507fc9f0f8d7dc4420a7a9f4c3465fd7e04ccdcdba009c147e7663ddd6c6090c732f8260405161031891906106fc565b60405180910390a15050565b60008054906101000a900473ffffffffffffffffffffffffffffffffffffffff1681565b6802b5e3af16b188000081565b6000600260008373ffffffffffffffffffffffffffffffffffffffff1673ffffffffffffffffffffffffffffffffffffffff16815260200190815260200160002060009054906101000a900460ff169050919050565b6000819050919050565b6103be816103ab565b82525050565b60006020820190506103d960008301846103b5565b92915050565b600073ffffffffffffffffffffffffffffffffffffffff82169050919050565b6000819050919050565b600061042461041f61041a846103df565b6103ff565b6103df565b9050919050565b600061043682610409565b9050919050565b60006104488261042b565b9050919050565b6104588161043d565b82525050565b6000602082019050610473600083018461044f565b92915050565b600080fd5b6000610489826103df565b9050919050565b6104998161047e565b81146104a457600080fd5b50565b6000813590506104b681610490565b92915050565b6000602082840312156104d2576104d1610479565b5b60006104e0848285016104a7565b91505092915050565b60008115159050919050565b6104fe816104e9565b82525050565b600060208201905061051960008301846104f5565b92915050565b600082825260208201905092915050565b7f416c726561647920636c61696d65642100000000000000000000000000000000600082015250565b600061056660108361051f565b915061057182610530565b602082019050919050565b6000602082019050818103600083015261059581610559565b9050919050565b6105a58161047e565b82525050565b60006040820190506105c0600083018561059c565b6105cd60208301846103b5565b9392505050565b6105dd816104e9565b81146105e857600080fd5b50565b6000815190506105fa816105d4565b92915050565b60006020828403121561061657610615610479565b5b6000610624848285016105eb565b91505092915050565b7f546f6b656e207472616e736665722066616c73652e0000000000000000000000600082015250565b600061066360158361051f565b915061066e8261062d565b602082019050919050565b6000602082019050818103600083015261069281610656565b9050919050565b7f4e487b7100000000000000000000000000000000000000000000000000000000600052601160045260246000fd5b60006106d3826103ab565b91506106de836103ab565b92508282019050808211156106f6576106f5610699565b5b92915050565b6000602082019050610711600083018461059c565b9291505056fea2646970667358221220eb073a4d4b29cb32726020f40fd085952119359c45a688a9a0a195d4cee9995864736f6c634300081b0033",
  "linkReferences": {},
  "deployedLinkReferences": {}
}