{
  "_format": "hh-sol-artifact-1",
  "contractName": "Staking",
  "sourceName": "contracts/Staking.sol",
  "abi": [
    {
      "inputs": [
        {
          "internalType": "contract STAToken",
          "name": "_stakingToken",
          "type": "address"
        },
        {
          "internalType": "contract STAToken",
          "name": "_rewardToken",
          "type": "address"
        },
        {
          "internalType": "uint256",
          "name": "_rewardPerSecond",
          "type": "uint256"
        },
        {
          "internalType": "uint256",
          "name": "_amount",
          "type": "uint256"
        }
      ],
      "stateMutability": "nonpayable",
      "type": "constructor"
    },
    {
      "anonymous": false,
      "inputs": [
        {
          "indexed": true,
          "internalType": "address",
          "name": "user",
          "type": "address"
        },
        {
          "indexed": false,
          "internalType": "uint256",
          "name": "amount",
          "type": "uint256"
        }
      ],
      "name": "ClaimReward",
      "type": "event"
    },
    {
      "anonymous": false,
      "inputs": [
        {
          "indexed": true,
          "internalType": "address",
          "name": "user",
          "type": "address"
        },
        {
          "indexed": false,
          "internalType": "uint256",
          "name": "amount",
          "type": "uint256"
        }
      ],
      "name": "RewardUpdate",
      "type": "event"
    },
    {
      "anonymous": false,
      "inputs": [
        {
          "indexed": true,
          "internalType": "address",
          "name": "user",
          "type": "address"
        },
        {
          "indexed": false,
          "internalType": "uint256",
          "name": "amount",
          "type": "uint256"
        }
      ],
      "name": "Staked",
      "type": "event"
    },
    {
      "anonymous": false,
      "inputs": [
        {
          "indexed": true,
          "internalType": "address",
          "name": "user",
          "type": "address"
        },
        {
          "indexed": false,
          "internalType": "uint256",
          "name": "amount",
          "type": "uint256"
        }
      ],
      "name": "Withdrawn",
      "type": "event"
    },
    {
      "inputs": [
        {
          "internalType": "address",
          "name": "user",
          "type": "address"
        }
      ],
      "name": "calculateReward",
      "outputs": [
        {
          "internalType": "uint256",
          "name": "",
          "type": "uint256"
        }
      ],
      "stateMutability": "nonpayable",
      "type": "function"
    },
    {
      "inputs": [],
      "name": "claimReward",
      "outputs": [],
      "stateMutability": "nonpayable",
      "type": "function"
    },
    {
      "inputs": [],
      "name": "contractTotalShares",
      "outputs": [
        {
          "internalType": "uint256",
          "name": "",
          "type": "uint256"
        }
      ],
      "stateMutability": "view",
      "type": "function"
    },
    {
      "inputs": [],
      "name": "contractTotalStaked",
      "outputs": [
        {
          "internalType": "uint256",
          "name": "",
          "type": "uint256"
        }
      ],
      "stateMutability": "view",
      "type": "function"
    },
    {
      "inputs": [],
      "name": "rewardToken",
      "outputs": [
        {
          "internalType": "contract STAToken",
          "name": "",
          "type": "address"
        }
      ],
      "stateMutability": "view",
      "type": "function"
    },
    {
      "inputs": [
        {
          "internalType": "uint256",
          "name": "amount",
          "type": "uint256"
        }
      ],
      "name": "stake",
      "outputs": [],
      "stateMutability": "nonpayable",
      "type": "function"
    },
    {
      "inputs": [],
      "name": "stakeRewardPerSecond",
      "outputs": [
        {
          "internalType": "uint256",
          "name": "",
          "type": "uint256"
        }
      ],
      "stateMutability": "view",
      "type": "function"
    },
    {
      "inputs": [],
      "name": "stakingToken",
      "outputs": [
        {
          "internalType": "contract STAToken",
          "name": "",
          "type": "address"
        }
      ],
      "stateMutability": "view",
      "type": "function"
    },
    {
      "inputs": [
        {
          "internalType": "address",
          "name": "",
          "type": "address"
        }
      ],
      "name": "userRewards",
      "outputs": [
        {
          "internalType": "uint256",
          "name": "",
          "type": "uint256"
        }
      ],
      "stateMutability": "view",
      "type": "function"
    },
    {
      "inputs": [
        {
          "internalType": "address",
          "name": "",
          "type": "address"
        }
      ],
      "name": "userShares",
      "outputs": [
        {
          "internalType": "uint256",
          "name": "",
          "type": "uint256"
        }
      ],
      "stateMutability": "view",
      "type": "function"
    },
    {
      "inputs": [
        {
          "internalType": "address",
          "name": "",
          "type": "address"
        }
      ],
      "name": "userStaked",
      "outputs": [
        {
          "internalType": "uint256",
          "name": "",
          "type": "uint256"
        }
      ],
      "stateMutability": "view",
      "type": "function"
    },
    {
      "inputs": [
        {
          "internalType": "address",
          "name": "",
          "type": "address"
        }
      ],
      "name": "userStakedStartTime",
      "outputs": [
        {
          "internalType": "uint256",
          "name": "",
          "type": "uint256"
        }
      ],
      "stateMutability": "view",
      "type": "function"
    },
    {
      "inputs": [
        {
          "internalType": "uint256",
          "name": "amount",
          "type": "uint256"
        }
      ],
      "name": "withdraw",
      "outputs": [],
      "stateMutability": "nonpayable",
      "type": "function"
    }
  ],
  "bytecode": "0x608060405234801561001057600080fd5b50604051611603380380611603833981810160405281019061003291906101fd565b836000806101000a81548173ffffffffffffffffffffffffffffffffffffffff021916908373ffffffffffffffffffffffffffffffffffffffff16021790555082600160006101000a81548173ffffffffffffffffffffffffffffffffffffffff021916908373ffffffffffffffffffffffffffffffffffffffff16021790555081600481905550600160009054906101000a900473ffffffffffffffffffffffffffffffffffffffff1673ffffffffffffffffffffffffffffffffffffffff166340c10f1930836040518363ffffffff1660e01b8152600401610117929190610282565b600060405180830381600087803b15801561013157600080fd5b505af1158015610145573d6000803e3d6000fd5b50505050505050506102ab565b600080fd5b600073ffffffffffffffffffffffffffffffffffffffff82169050919050565b600061018282610157565b9050919050565b600061019482610177565b9050919050565b6101a481610189565b81146101af57600080fd5b50565b6000815190506101c18161019b565b92915050565b6000819050919050565b6101da816101c7565b81146101e557600080fd5b50565b6000815190506101f7816101d1565b92915050565b6000806000806080858703121561021757610216610152565b5b6000610225878288016101b2565b9450506020610236878288016101b2565b9350506040610247878288016101e8565b9250506060610258878288016101e8565b91505092959194509250565b61026d81610177565b82525050565b61027c816101c7565b82525050565b60006040820190506102976000830185610264565b6102a46020830184610273565b9392505050565b611349806102ba6000396000f3fe608060405234801561001057600080fd5b50600436106100cf5760003560e01c8063acc3a9391161008c578063d59f92ff11610066578063d59f92ff14610200578063d82e39621461021e578063de69b3aa1461024e578063f7c618c11461027e576100cf565b8063acc3a939146101a8578063b1d1ab83146101d8578063b88a802f146101f6576100cf565b80630660f1e8146100d45780632e1a7d4d1461010457806357b806b61461012057806372f702f314610150578063a694fc3a1461016e578063a9bab6d21461018a575b600080fd5b6100ee60048036038101906100e99190610e5d565b61029c565b6040516100fb9190610ea3565b60405180910390f35b61011e60048036038101906101199190610eea565b6102b4565b005b61013a60048036038101906101359190610e5d565b6105bc565b6040516101479190610ea3565b60405180910390f35b6101586105d4565b6040516101659190610f76565b60405180910390f35b61018860048036038101906101839190610eea565b6105f8565b005b610192610881565b60405161019f9190610ea3565b60405180910390f35b6101c260048036038101906101bd9190610e5d565b610887565b6040516101cf9190610ea3565b60405180910390f35b6101e061089f565b6040516101ed9190610ea3565b60405180910390f35b6101fe6108a5565b005b610208610a74565b6040516102159190610ea3565b60405180910390f35b61023860048036038101906102339190610e5d565b610a7a565b6040516102459190610ea3565b60405180910390f35b61026860048036038101906102639190610e5d565b610cd3565b6040516102759190610ea3565b60405180910390f35b610286610ceb565b6040516102939190610f76565b60405180910390f35b60086020528060005260406000206000915090505481565b6102bd33610d11565b60008111610300576040517f08c379a00000000000000000000000000000000000000000000000000000000081526004016102f790610fee565b60405180910390fd5b80600660003373ffffffffffffffffffffffffffffffffffffffff1673ffffffffffffffffffffffffffffffffffffffff168152602001908152602001600020541015610382576040517f08c379a00000000000000000000000000000000000000000000000000000000081526004016103799061105a565b60405180910390fd5b61038a6108a5565b60006003546002548361039d91906110a9565b6103a7919061111a565b905042600760003373ffffffffffffffffffffffffffffffffffffffff1673ffffffffffffffffffffffffffffffffffffffff1681526020019081526020016000208190555080600560003373ffffffffffffffffffffffffffffffffffffffff1673ffffffffffffffffffffffffffffffffffffffff168152602001908152602001600020600082825461043c919061114b565b925050819055508060026000828254610455919061114b565b9250508190555081600660003373ffffffffffffffffffffffffffffffffffffffff1673ffffffffffffffffffffffffffffffffffffffff16815260200190815260200160002060008282546104ab919061114b565b9250508190555081600360008282546104c4919061114b565b9250508190555060008054906101000a900473ffffffffffffffffffffffffffffffffffffffff1673ffffffffffffffffffffffffffffffffffffffff1663a9059cbb33846040518363ffffffff1660e01b815260040161052692919061118e565b6020604051808303816000875af1158015610545573d6000803e3d6000fd5b505050506040513d601f19601f8201168201806040525081019061056991906111ef565b503373ffffffffffffffffffffffffffffffffffffffff167f7084f5476618d8e60b11ef0d7d3f06914655adb8793e28ff7f018d4c76d505d5836040516105b09190610ea3565b60405180910390a25050565b60076020528060005260406000206000915090505481565b60008054906101000a900473ffffffffffffffffffffffffffffffffffffffff1681565b6000811161063b576040517f08c379a000000000000000000000000000000000000000000000000000000000815260040161063290610fee565b60405180910390fd5b6000806002540361064e5781905061066c565b6003546002548361065f91906110a9565b610669919061111a565b90505b42600760003373ffffffffffffffffffffffffffffffffffffffff1673ffffffffffffffffffffffffffffffffffffffff1681526020019081526020016000208190555080600560003373ffffffffffffffffffffffffffffffffffffffff1673ffffffffffffffffffffffffffffffffffffffff16815260200190815260200160002060008282546106ff919061121c565b925050819055508060026000828254610718919061121c565b9250508190555081600660003373ffffffffffffffffffffffffffffffffffffffff1673ffffffffffffffffffffffffffffffffffffffff168152602001908152602001600020600082825461076e919061121c565b925050819055508160036000828254610787919061121c565b9250508190555060008054906101000a900473ffffffffffffffffffffffffffffffffffffffff1673ffffffffffffffffffffffffffffffffffffffff166323b872dd3330856040518463ffffffff1660e01b81526004016107eb93929190611250565b6020604051808303816000875af115801561080a573d6000803e3d6000fd5b505050506040513d601f19601f8201168201806040525081019061082e91906111ef565b503373ffffffffffffffffffffffffffffffffffffffff167f9e71bc8eea02a63969f509818f2dafb9254532904319f9dbda79b67bd34a5f3d836040516108759190610ea3565b60405180910390a25050565b60025481565b60066020528060005260406000206000915090505481565b60045481565b6108ae33610d11565b6000600660003373ffffffffffffffffffffffffffffffffffffffff1673ffffffffffffffffffffffffffffffffffffffff168152602001908152602001600020541015610931576040517f08c379a00000000000000000000000000000000000000000000000000000000081526004016109289061105a565b60405180910390fd5b600061093c33610a7a565b905042600760003373ffffffffffffffffffffffffffffffffffffffff1673ffffffffffffffffffffffffffffffffffffffff16815260200190815260200160002081905550600160009054906101000a900473ffffffffffffffffffffffffffffffffffffffff1673ffffffffffffffffffffffffffffffffffffffff1663a9059cbb33836040518363ffffffff1660e01b81526004016109df92919061118e565b6020604051808303816000875af11580156109fe573d6000803e3d6000fd5b505050506040513d601f19601f82011682018060405250810190610a2291906111ef565b503373ffffffffffffffffffffffffffffffffffffffff167fba8de60c3403ec381d1d484652ea1980e3c3e56359195c92525bff4ce47ad98e82604051610a699190610ea3565b60405180910390a250565b60035481565b60008060025403610a8e5760009050610cce565b6000600760008473ffffffffffffffffffffffffffffffffffffffff1673ffffffffffffffffffffffffffffffffffffffff1681526020019081526020016000205442610adb919061114b565b905060008103610aef576000915050610cce565b6000600254670de0b6b3a7640000600560008773ffffffffffffffffffffffffffffffffffffffff1673ffffffffffffffffffffffffffffffffffffffff16815260200190815260200160002054610b4791906110a9565b610b51919061111a565b90506000670de0b6b3a764000082600160009054906101000a900473ffffffffffffffffffffffffffffffffffffffff1673ffffffffffffffffffffffffffffffffffffffff166370a08231306040518263ffffffff1660e01b8152600401610bba9190611287565b602060405180830381865afa158015610bd7573d6000803e3d6000fd5b505050506040513d601f19601f82011682018060405250810190610bfb91906112b7565b610c0591906110a9565b610c0f919061111a565b9050600060045484610c2191906110a9565b905060008183610c31919061121c565b90508673ffffffffffffffffffffffffffffffffffffffff167fe28cd2038f36acabeb604da9d52b3e6149b41435a3fae430f4d18ff1932ef07b82604051610c799190610ea3565b60405180910390a280600860008973ffffffffffffffffffffffffffffffffffffffff1673ffffffffffffffffffffffffffffffffffffffff1681526020019081526020016000208190555080955050505050505b919050565b60056020528060005260406000206000915090505481565b600160009054906101000a900473ffffffffffffffffffffffffffffffffffffffff1681565b610da781604051602401610d259190611287565b6040516020818303038152906040527f2c2ecbc2000000000000000000000000000000000000000000000000000000007bffffffffffffffffffffffffffffffffffffffffffffffffffffffff19166020820180517bffffffffffffffffffffffffffffffffffffffffffffffffffffffff8381831617835250505050610daa565b50565b610dc181610db9610dc4610de5565b63ffffffff16565b50565b60006a636f6e736f6c652e6c6f679050600080835160208501845afa505050565b610df0819050919050565b610df86112e4565b565b600080fd5b600073ffffffffffffffffffffffffffffffffffffffff82169050919050565b6000610e2a82610dff565b9050919050565b610e3a81610e1f565b8114610e4557600080fd5b50565b600081359050610e5781610e31565b92915050565b600060208284031215610e7357610e72610dfa565b5b6000610e8184828501610e48565b91505092915050565b6000819050919050565b610e9d81610e8a565b82525050565b6000602082019050610eb86000830184610e94565b92915050565b610ec781610e8a565b8114610ed257600080fd5b50565b600081359050610ee481610ebe565b92915050565b600060208284031215610f0057610eff610dfa565b5b6000610f0e84828501610ed5565b91505092915050565b6000819050919050565b6000610f3c610f37610f3284610dff565b610f17565b610dff565b9050919050565b6000610f4e82610f21565b9050919050565b6000610f6082610f43565b9050919050565b610f7081610f55565b82525050565b6000602082019050610f8b6000830184610f67565b92915050565b600082825260208201905092915050565b7f616d6f756e74206d7573742062652067726561746572207468616e2030000000600082015250565b6000610fd8601d83610f91565b9150610fe382610fa2565b602082019050919050565b6000602082019050818103600083015261100781610fcb565b9050919050565b7f496e73756666696369656e74207374616b656420616d6f756e74000000000000600082015250565b6000611044601a83610f91565b915061104f8261100e565b602082019050919050565b6000602082019050818103600083015261107381611037565b9050919050565b7f4e487b7100000000000000000000000000000000000000000000000000000000600052601160045260246000fd5b60006110b482610e8a565b91506110bf83610e8a565b92508282026110cd81610e8a565b915082820484148315176110e4576110e361107a565b5b5092915050565b7f4e487b7100000000000000000000000000000000000000000000000000000000600052601260045260246000fd5b600061112582610e8a565b915061113083610e8a565b9250826111405761113f6110eb565b5b828204905092915050565b600061115682610e8a565b915061116183610e8a565b92508282039050818111156111795761117861107a565b5b92915050565b61118881610e1f565b82525050565b60006040820190506111a3600083018561117f565b6111b06020830184610e94565b9392505050565b60008115159050919050565b6111cc816111b7565b81146111d757600080fd5b50565b6000815190506111e9816111c3565b92915050565b60006020828403121561120557611204610dfa565b5b6000611213848285016111da565b91505092915050565b600061122782610e8a565b915061123283610e8a565b925082820190508082111561124a5761124961107a565b5b92915050565b6000606082019050611265600083018661117f565b611272602083018561117f565b61127f6040830184610e94565b949350505050565b600060208201905061129c600083018461117f565b92915050565b6000815190506112b181610ebe565b92915050565b6000602082840312156112cd576112cc610dfa565b5b60006112db848285016112a2565b91505092915050565b7f4e487b7100000000000000000000000000000000000000000000000000000000600052605160045260246000fdfea26469706673582212205ad335f73262242d4904c30dc7dd3198c1ee7a65b105d740806b3d5adffd2f3064736f6c634300081b0033",
  "linkReferences": {},
  "deployedLinkReferences": {}
}