{
  "_format": "hh-sol-artifact-1",
  "contractName": "Staking",
  "sourceName": "contracts/Staking.sol",
  "abi": [
    {
      "inputs": [
        {
          "internalType": "contract STAToken",
          "name": "_stakingToken",
          "type": "address"
        },
        {
          "internalType": "contract STAToken",
          "name": "_rewardToken",
          "type": "address"
        },
        {
          "internalType": "uint256",
          "name": "_rewardPerSecond",
          "type": "uint256"
        },
        {
          "internalType": "uint256",
          "name": "_amount",
          "type": "uint256"
        }
      ],
      "stateMutability": "nonpayable",
      "type": "constructor"
    },
    {
      "anonymous": false,
      "inputs": [
        {
          "indexed": true,
          "internalType": "address",
          "name": "user",
          "type": "address"
        },
        {
          "indexed": false,
          "internalType": "uint256",
          "name": "amount",
          "type": "uint256"
        }
      ],
      "name": "ClaimReward",
      "type": "event"
    },
    {
      "anonymous": false,
      "inputs": [
        {
          "indexed": true,
          "internalType": "address",
          "name": "user",
          "type": "address"
        },
        {
          "indexed": false,
          "internalType": "uint256",
          "name": "amount",
          "type": "uint256"
        }
      ],
      "name": "Staked",
      "type": "event"
    },
    {
      "anonymous": false,
      "inputs": [
        {
          "indexed": true,
          "internalType": "address",
          "name": "user",
          "type": "address"
        },
        {
          "indexed": false,
          "internalType": "uint256",
          "name": "amount",
          "type": "uint256"
        }
      ],
      "name": "Withdrawn",
      "type": "event"
    },
    {
      "inputs": [
        {
          "internalType": "address",
          "name": "user",
          "type": "address"
        }
      ],
      "name": "calculateReward",
      "outputs": [
        {
          "internalType": "uint256",
          "name": "",
          "type": "uint256"
        }
      ],
      "stateMutability": "nonpayable",
      "type": "function"
    },
    {
      "inputs": [],
      "name": "claimReward",
      "outputs": [],
      "stateMutability": "nonpayable",
      "type": "function"
    },
    {
      "inputs": [],
      "name": "contractTotalShares",
      "outputs": [
        {
          "internalType": "uint256",
          "name": "",
          "type": "uint256"
        }
      ],
      "stateMutability": "view",
      "type": "function"
    },
    {
      "inputs": [],
      "name": "contractTotalStaked",
      "outputs": [
        {
          "internalType": "uint256",
          "name": "",
          "type": "uint256"
        }
      ],
      "stateMutability": "view",
      "type": "function"
    },
    {
      "inputs": [],
      "name": "rewardToken",
      "outputs": [
        {
          "internalType": "contract STAToken",
          "name": "",
          "type": "address"
        }
      ],
      "stateMutability": "view",
      "type": "function"
    },
    {
      "inputs": [
        {
          "internalType": "uint256",
          "name": "amount",
          "type": "uint256"
        }
      ],
      "name": "stake",
      "outputs": [],
      "stateMutability": "nonpayable",
      "type": "function"
    },
    {
      "inputs": [],
      "name": "stakeRewardPerSecond",
      "outputs": [
        {
          "internalType": "uint256",
          "name": "",
          "type": "uint256"
        }
      ],
      "stateMutability": "view",
      "type": "function"
    },
    {
      "inputs": [],
      "name": "stakingToken",
      "outputs": [
        {
          "internalType": "contract STAToken",
          "name": "",
          "type": "address"
        }
      ],
      "stateMutability": "view",
      "type": "function"
    },
    {
      "inputs": [
        {
          "internalType": "address",
          "name": "",
          "type": "address"
        }
      ],
      "name": "userShares",
      "outputs": [
        {
          "internalType": "uint256",
          "name": "",
          "type": "uint256"
        }
      ],
      "stateMutability": "view",
      "type": "function"
    },
    {
      "inputs": [
        {
          "internalType": "address",
          "name": "",
          "type": "address"
        }
      ],
      "name": "userStaked",
      "outputs": [
        {
          "internalType": "uint256",
          "name": "",
          "type": "uint256"
        }
      ],
      "stateMutability": "view",
      "type": "function"
    },
    {
      "inputs": [
        {
          "internalType": "address",
          "name": "",
          "type": "address"
        }
      ],
      "name": "userStakedStartTime",
      "outputs": [
        {
          "internalType": "uint256",
          "name": "",
          "type": "uint256"
        }
      ],
      "stateMutability": "view",
      "type": "function"
    },
    {
      "inputs": [
        {
          "internalType": "uint256",
          "name": "amount",
          "type": "uint256"
        }
      ],
      "name": "withdraw",
      "outputs": [],
      "stateMutability": "nonpayable",
      "type": "function"
    }
  ],
  "bytecode": "0x608060405234801561001057600080fd5b506040516113e43803806113e4833981810160405281019061003291906101fd565b836000806101000a81548173ffffffffffffffffffffffffffffffffffffffff021916908373ffffffffffffffffffffffffffffffffffffffff16021790555082600160006101000a81548173ffffffffffffffffffffffffffffffffffffffff021916908373ffffffffffffffffffffffffffffffffffffffff16021790555081600481905550600160009054906101000a900473ffffffffffffffffffffffffffffffffffffffff1673ffffffffffffffffffffffffffffffffffffffff166340c10f1930836040518363ffffffff1660e01b8152600401610117929190610282565b600060405180830381600087803b15801561013157600080fd5b505af1158015610145573d6000803e3d6000fd5b50505050505050506102ab565b600080fd5b600073ffffffffffffffffffffffffffffffffffffffff82169050919050565b600061018282610157565b9050919050565b600061019482610177565b9050919050565b6101a481610189565b81146101af57600080fd5b50565b6000815190506101c18161019b565b92915050565b6000819050919050565b6101da816101c7565b81146101e557600080fd5b50565b6000815190506101f7816101d1565b92915050565b6000806000806080858703121561021757610216610152565b5b6000610225878288016101b2565b9450506020610236878288016101b2565b9350506040610247878288016101e8565b9250506060610258878288016101e8565b91505092959194509250565b61026d81610177565b82525050565b61027c816101c7565b82525050565b60006040820190506102976000830185610264565b6102a46020830184610273565b9392505050565b61112a806102ba6000396000f3fe608060405234801561001057600080fd5b50600436106100b45760003560e01c8063b1d1ab8311610071578063b1d1ab831461018d578063b88a802f146101ab578063d59f92ff146101b5578063d82e3962146101d3578063de69b3aa14610203578063f7c618c114610233576100b4565b80632e1a7d4d146100b957806357b806b6146100d557806372f702f314610105578063a694fc3a14610123578063a9bab6d21461013f578063acc3a9391461015d575b600080fd5b6100d360048036038101906100ce9190610c45565b610251565b005b6100ef60048036038101906100ea9190610cd0565b610550565b6040516100fc9190610d0c565b60405180910390f35b61010d610568565b60405161011a9190610d86565b60405180910390f35b61013d60048036038101906101389190610c45565b61058c565b005b610147610815565b6040516101549190610d0c565b60405180910390f35b61017760048036038101906101729190610cd0565b61081b565b6040516101849190610d0c565b60405180910390f35b610195610833565b6040516101a29190610d0c565b60405180910390f35b6101b3610839565b005b6101bd6109bb565b6040516101ca9190610d0c565b60405180910390f35b6101ed60048036038101906101e89190610cd0565b6109c1565b6040516101fa9190610d0c565b60405180910390f35b61021d60048036038101906102189190610cd0565b610bcc565b60405161022a9190610d0c565b60405180910390f35b61023b610be4565b6040516102489190610d86565b60405180910390f35b60008111610294576040517f08c379a000000000000000000000000000000000000000000000000000000000815260040161028b90610dfe565b60405180910390fd5b80600660003373ffffffffffffffffffffffffffffffffffffffff1673ffffffffffffffffffffffffffffffffffffffff168152602001908152602001600020541015610316576040517f08c379a000000000000000000000000000000000000000000000000000000000815260040161030d90610e6a565b60405180910390fd5b61031e610839565b6000600354600254836103319190610eb9565b61033b9190610f2a565b905042600760003373ffffffffffffffffffffffffffffffffffffffff1673ffffffffffffffffffffffffffffffffffffffff1681526020019081526020016000208190555080600560003373ffffffffffffffffffffffffffffffffffffffff1673ffffffffffffffffffffffffffffffffffffffff16815260200190815260200160002060008282546103d09190610f5b565b9250508190555080600260008282546103e99190610f5b565b9250508190555081600660003373ffffffffffffffffffffffffffffffffffffffff1673ffffffffffffffffffffffffffffffffffffffff168152602001908152602001600020600082825461043f9190610f5b565b9250508190555081600360008282546104589190610f5b565b9250508190555060008054906101000a900473ffffffffffffffffffffffffffffffffffffffff1673ffffffffffffffffffffffffffffffffffffffff1663a9059cbb33846040518363ffffffff1660e01b81526004016104ba929190610f9e565b6020604051808303816000875af11580156104d9573d6000803e3d6000fd5b505050506040513d601f19601f820116820180604052508101906104fd9190610fff565b503373ffffffffffffffffffffffffffffffffffffffff167f7084f5476618d8e60b11ef0d7d3f06914655adb8793e28ff7f018d4c76d505d5836040516105449190610d0c565b60405180910390a25050565b60076020528060005260406000206000915090505481565b60008054906101000a900473ffffffffffffffffffffffffffffffffffffffff1681565b600081116105cf576040517f08c379a00000000000000000000000000000000000000000000000000000000081526004016105c690610dfe565b60405180910390fd5b600080600254036105e257819050610600565b600354600254836105f39190610eb9565b6105fd9190610f2a565b90505b42600760003373ffffffffffffffffffffffffffffffffffffffff1673ffffffffffffffffffffffffffffffffffffffff1681526020019081526020016000208190555080600560003373ffffffffffffffffffffffffffffffffffffffff1673ffffffffffffffffffffffffffffffffffffffff1681526020019081526020016000206000828254610693919061102c565b9250508190555080600260008282546106ac919061102c565b9250508190555081600660003373ffffffffffffffffffffffffffffffffffffffff1673ffffffffffffffffffffffffffffffffffffffff1681526020019081526020016000206000828254610702919061102c565b92505081905550816003600082825461071b919061102c565b9250508190555060008054906101000a900473ffffffffffffffffffffffffffffffffffffffff1673ffffffffffffffffffffffffffffffffffffffff166323b872dd3330856040518463ffffffff1660e01b815260040161077f93929190611060565b6020604051808303816000875af115801561079e573d6000803e3d6000fd5b505050506040513d601f19601f820116820180604052508101906107c29190610fff565b503373ffffffffffffffffffffffffffffffffffffffff167f9e71bc8eea02a63969f509818f2dafb9254532904319f9dbda79b67bd34a5f3d836040516108099190610d0c565b60405180910390a25050565b60025481565b60066020528060005260406000206000915090505481565b60045481565b6000600660003373ffffffffffffffffffffffffffffffffffffffff1673ffffffffffffffffffffffffffffffffffffffff1681526020019081526020016000205410156108bc576040517f08c379a00000000000000000000000000000000000000000000000000000000081526004016108b390610e6a565b60405180910390fd5b60006108c7336109c1565b9050600160009054906101000a900473ffffffffffffffffffffffffffffffffffffffff1673ffffffffffffffffffffffffffffffffffffffff1663a9059cbb33836040518363ffffffff1660e01b8152600401610926929190610f9e565b6020604051808303816000875af1158015610945573d6000803e3d6000fd5b505050506040513d601f19601f820116820180604052508101906109699190610fff565b503373ffffffffffffffffffffffffffffffffffffffff167fba8de60c3403ec381d1d484652ea1980e3c3e56359195c92525bff4ce47ad98e826040516109b09190610d0c565b60405180910390a250565b60035481565b600080600254036109d55760009050610bc7565b6000600760008473ffffffffffffffffffffffffffffffffffffffff1673ffffffffffffffffffffffffffffffffffffffff1681526020019081526020016000205442610a229190610f5b565b905060008103610a36576000915050610bc7565b42600760008573ffffffffffffffffffffffffffffffffffffffff1673ffffffffffffffffffffffffffffffffffffffff168152602001908152602001600020819055506000600254670de0b6b3a7640000600560008773ffffffffffffffffffffffffffffffffffffffff1673ffffffffffffffffffffffffffffffffffffffff16815260200190815260200160002054610ad29190610eb9565b610adc9190610f2a565b90506000670de0b6b3a764000082600160009054906101000a900473ffffffffffffffffffffffffffffffffffffffff1673ffffffffffffffffffffffffffffffffffffffff166370a08231306040518263ffffffff1660e01b8152600401610b459190611097565b602060405180830381865afa158015610b62573d6000803e3d6000fd5b505050506040513d601f19601f82011682018060405250810190610b8691906110c7565b610b909190610eb9565b610b9a9190610f2a565b9050600060045484610bac9190610eb9565b905060008183610bbc919061102c565b905080955050505050505b919050565b60056020528060005260406000206000915090505481565b600160009054906101000a900473ffffffffffffffffffffffffffffffffffffffff1681565b600080fd5b6000819050919050565b610c2281610c0f565b8114610c2d57600080fd5b50565b600081359050610c3f81610c19565b92915050565b600060208284031215610c5b57610c5a610c0a565b5b6000610c6984828501610c30565b91505092915050565b600073ffffffffffffffffffffffffffffffffffffffff82169050919050565b6000610c9d82610c72565b9050919050565b610cad81610c92565b8114610cb857600080fd5b50565b600081359050610cca81610ca4565b92915050565b600060208284031215610ce657610ce5610c0a565b5b6000610cf484828501610cbb565b91505092915050565b610d0681610c0f565b82525050565b6000602082019050610d216000830184610cfd565b92915050565b6000819050919050565b6000610d4c610d47610d4284610c72565b610d27565b610c72565b9050919050565b6000610d5e82610d31565b9050919050565b6000610d7082610d53565b9050919050565b610d8081610d65565b82525050565b6000602082019050610d9b6000830184610d77565b92915050565b600082825260208201905092915050565b7f616d6f756e74206d7573742062652067726561746572207468616e2030000000600082015250565b6000610de8601d83610da1565b9150610df382610db2565b602082019050919050565b60006020820190508181036000830152610e1781610ddb565b9050919050565b7f496e73756666696369656e74207374616b656420616d6f756e74000000000000600082015250565b6000610e54601a83610da1565b9150610e5f82610e1e565b602082019050919050565b60006020820190508181036000830152610e8381610e47565b9050919050565b7f4e487b7100000000000000000000000000000000000000000000000000000000600052601160045260246000fd5b6000610ec482610c0f565b9150610ecf83610c0f565b9250828202610edd81610c0f565b91508282048414831517610ef457610ef3610e8a565b5b5092915050565b7f4e487b7100000000000000000000000000000000000000000000000000000000600052601260045260246000fd5b6000610f3582610c0f565b9150610f4083610c0f565b925082610f5057610f4f610efb565b5b828204905092915050565b6000610f6682610c0f565b9150610f7183610c0f565b9250828203905081811115610f8957610f88610e8a565b5b92915050565b610f9881610c92565b82525050565b6000604082019050610fb36000830185610f8f565b610fc06020830184610cfd565b9392505050565b60008115159050919050565b610fdc81610fc7565b8114610fe757600080fd5b50565b600081519050610ff981610fd3565b92915050565b60006020828403121561101557611014610c0a565b5b600061102384828501610fea565b91505092915050565b600061103782610c0f565b915061104283610c0f565b925082820190508082111561105a57611059610e8a565b5b92915050565b60006060820190506110756000830186610f8f565b6110826020830185610f8f565b61108f6040830184610cfd565b949350505050565b60006020820190506110ac6000830184610f8f565b92915050565b6000815190506110c181610c19565b92915050565b6000602082840312156110dd576110dc610c0a565b5b60006110eb848285016110b2565b9150509291505056fea264697066735822122006b84e7de83c24749614f7d073ad630be06f28857699e6fd0fff11c3a68d1d0c64736f6c634300081b0033",
  "linkReferences": {},
  "deployedLinkReferences": {}
}